:1000000002C1000030C100002EC100002CC1000060
:100010002AC1000028C1000026C1000024C1000040
:1000200022C1000020C100001EC100001CC1000050
:100030001AC1000018C1000016C1000014C1000060
:1000400012C1000029C700000EC100000CC1000051
:100050000AC1000008C1000006C100004CC6000033
:1000600002C1000012C60000E7C50000FCC000008D
:10007000FAC00000F8C00000F6C00000F4C00000A4
:10008000DEC60000F0C00000EEC00000ECC00000C2
:10009000EAC00000E8C00000E6C00000E4C00000C4
:1000A000E2C00000E0C000009DC60000DCC000000F
:1000B000DAC00000D8C00000D6C0000066C600004C
:1000C000D2C00000D0C00000CEC00000CCC00000F4
:1000D000CAC00000C8C00000C6C00000C4C0000004
:1000E000C2C0000000002100240027002A002D00CB
:1000F0003000330001010000040107010A01000083
:100100002200250028002B002E00310034000201BF
:100110000000050108010B0100002000230026005B
:1001200029002C002F00320000010000030106010D
:10013000090105050505070508080808020202026D
:100140000A0A080804040404010101010101010173
:100150000303030303030303040707070C0C0C0C3E
:100160000C0C0C0C02020202060606060606060627
:100170000B0B0B0B0B0B0B0B0102102020080810B4
:100180002040102040800201020108040201010207
:1001900004081020408080402010080402018004E0
:1001A000020180402010080402010804020101023B
:1001B0000408102040800102040810204080000044
:1001C0000A0B02090C0D0E080703040100000000D1
:1001D000000000000000000000000000000000001F
:1001E00000000000000000000000121110000000DC
:1001F00000000000000000000000000000000000FF
:1002000000000000940711241FBECFEFD1E2DEBF33
:10021000CDBF00E00CBF13E0A0E0B2E0E6E5F9E1FD
:1002200000E00BBF02C007900D92A23FB107D9F7C3
:1002300025E0A2EFB3E001C01D92AA34B207E1F7B6
:1002400011E0C3E0D1E000E006C021970109802F52
:10025000FE010E948D0CC230D10780E00807A9F78B
:100260009ED60C94A90CCCCEFC018081803378F40E
:100270002FB7F89490E0FC01EE0FFF1FE80FF91F75
:10028000E25FFB4F84EB9BE0928381832FBF089555
:10029000AF92BF92CF92DF92EF92FF920F931F9394
:1002A000CF93DF936C017B018B01040F151FEB01D2
:1002B0005E01AE18BF08C017D10759F06991D60189
:1002C000ED91FC910190F081E02DC6011995892BEB
:1002D00079F7C501DF91CF911F910F91FF90EF90BA
:1002E000DF90CF90BF90AF900895FC01538D448D67
:1002F000252F30E0842F90E0821B930B541710F0D1
:10030000CF96089501970895FC01918D828D9817DD
:1003100061F0A28DAE0FBF2FB11D5D968C91928DB5
:100320009F5F9F73928F90E008958FEF9FEF0895E6
:10033000FC01918D828D981731F0828DE80FF11DAF
:10034000858D90E008958FEF9FEF0895FC01918DCA
:10035000228D892F90E0805C9F4F821B91098F73C3
:10036000992708958EE994E0F1DF21E0892B09F4C3
:1003700020E0822F0895FC01A48DA80FB92FB11D94
:10038000A35ABF4F2C91848D90E001968F739927CB
:10039000848FA689B7892C93A089B1898C918370A9
:1003A00080648C93938D848D981306C00288F389A2
:1003B000E02D80818F7D80830895EF92FF920F93CF
:1003C0001F93CF93DF93EC0181E0888F9B8D8C8D01
:1003D00098131AC0E889F989808185FF15C09FB7F5
:1003E000F894EE89FF896083E889F98980818370B8
:1003F000806480839FBF81E090E0DF91CF911F9167
:100400000F91FF90EF900895F62E0B8D10E00F5F87
:100410001F4F0F731127E02E8C8D8E110BC00FB65E
:1004200007FCFACFE889F989808185FFF5CFCE01F5
:10043000A2DFF2CFEB8DEC0FFD2FF11DE35AFF4F42
:10044000F0829FB7F8940B8FEA89FB8980818062E4
:10045000D0CFCF93DF93EC01888D8823B1F0AA89A8
:10046000BB89E889F9898C9185FD03C0808186FD6F
:100470000CC00FB607FCF7CF8C9185FFF2CF8081BF
:1004800085FFEDCFCE0177DFEACFDF91CF910895E1
:1004900080E090E0892B21F065DF81110E9400004F
:1004A00080E090E0892B49F080E090E0892B29F0F2
:1004B0000E94000081110E94000080E090E0892BE2
:1004C00049F080E090E0892B29F00E940000811122
:1004D0000E94000080E090E0892B49F080E090E0ED
:1004E000892B29F00E94000081110C9400000895CE
:1004F0008150823108F05AC0E82FF0E08827EC578D
:10050000FD4F8F4F0C948D0CA402A80296029C0202
:10051000A002D602AB02B102B502BB02BF02C30207
:10052000C902CD02D602D102D702DB02809180003F
:100530008F77809380000895809180008F7DF9CF20
:1005400080918000877FF5CF84B58F7784BD089533
:1005500084B58F7DFBCF8091B0008F778093B00002
:1005600008958091B0008F7DF9CF809190008F77B2
:10057000809390000895809190008F7DF9CF8091B5
:100580009000877FF5CF8091A0008F778093A000A7
:1005900008958091A0008F7DF9CF8091A000877F82
:1005A000F5CF809120018F7780932001089580916D
:1005B00020018F7DF9CF80912001877FF5CF1F9398
:1005C000CF93DF93282F30E0F901E254FE4F84915E
:1005D000F901E858FE4FD491F901EE5CFE4FC49149
:1005E000CC23A1F0162F811183DFEC2FF0E0EE0F6A
:1005F000FF1FE250FF4FA591B4918FB7F894EC9193
:10060000111108C0D095DE23DC938FBFDF91CF910D
:100610001F910895DE2BF8CFCF93DF9390E0FC017C
:10062000E858FE4F24918E5C9E4FFC0184918823F4
:10063000D1F090E0880F991FFC01EC51FF4FA5917C
:10064000B491FC01E250FF4FC591D49161110EC0ED
:100650009FB7F8948C91E22FE0958E238C9328819C
:10066000E223E8839FBFDF91CF9108958FB7F8947D
:10067000EC91E22BEC938FBFF6CF865320917B0059
:10068000982F987F277F922B90937B0087708064B0
:1006900080937C0080917A00806480937A008091BE
:1006A0007A0086FDFCCF80917800909179000895C2
:1006B0003FB7F8948091FC039091FD03A091FE0355
:1006C000B091FF0326B5A89B05C02F3F19F00196F6
:1006D000A11DB11D3FBFBA2FA92F982F8827BC019C
:1006E000CD01620F711D811D911D42E0660F771FC4
:1006F000881F991F4A95D1F708958F929F92AF92C4
:10070000BF92CF92DF92EF92FF92D2DF4B015C015A
:1007100088EEC82E83E0D82EE12CF12CC9DF6819B1
:1007200079098A099B09683E734081059105B0F3F8
:1007300021E0C21AD108E108F10888EE880E83E0B2
:10074000981EA11CB11CC114D104E104F10431F7BD
:10075000FF90EF90DF90CF90BF90AF909F908F90E1
:1007600008952FB7F8946091F8037091F903809180
:10077000FA039091FB032FBF08951F93CF93DF934C
:10078000EC01162F8881803308F04DC061E0812F85
:1007900043DF8881282F30E0F901EE0FFF1FE20FC1
:1007A000F31FE25FFB4F1F736081607C612B6083EE
:1007B00019821A822CE0622F0E946E0C829FB00177
:1007C000112430E020E0AB01420F531FFA01EE0F7D
:1007D000FF1FE40FF51FE25FFB4F908196FD16C0EF
:1007E0002F5F3F4F2C30310571F7813009F51092A2
:1007F000800082E080938100109285001092840036
:10080000B19A80916F00826080936F00E8818E2F93
:1008100090E0FC01EE0FFF1FE80FF91FE25FFB4FB6
:100820008081806480838881DF91CF911F910895BA
:10083000823061F4109290008093910010929500A4
:100840001092940088BB80937100E0CF833069F4EC
:100850001092A00082E08093A1001092A500109257
:10086000A40089BB80937200D1CF8111CFCF1092A9
:10087000200182E080932101109225011092240131
:100880008ABB80937300C2CFAF92BF92CF92DF92A8
:10089000EF92FF920F931F93CF93DF936B017A0137
:1008A000EC01CE50DC4F28813CE0389F8001399F1D
:1008B000100D1124A090F603B12C27FF1FC0FB01DF
:1008C0001182108288818F5F888388819801280F28
:1008D000311D87FD3A95F6012A153B051CF48881E8
:1008E0008C30BCF180819181049680349C4908F45D
:1008F00071C0F6018081918104966EC08881980153
:10090000280F311D87FD3A952A153B05DCF68881B5
:10091000A801480F511D87FD5A95FA01EE0FFF1FE0
:10092000E40FF51FE25FFB4F808186FFCBCF88810C
:10093000F801E80FF11D87FDFA95CF01EE0FFF1FBB
:10094000E80FF91FE25FFB4F808160E08F7337DEB5
:10095000B9CF808191812881A801420F511D27FDC7
:100960005A959A01FA01EE0FFF1FE20FF31FE25FA3
:10097000FB4F21813281820F931FF7019183808386
:1009800088819801280F311D87FD3A95F901EE0FF6
:10099000FF1FE20FF31FE25FFB4F808186FF21C044
:1009A0008881080F111D87FD1A95F801EE0FFF1FB2
:1009B000E00FF11FE25FFB4F808161E08F73DF91F9
:1009C000CF911F910F91FF90EF90DF90CF90BF904C
:1009D000AF90F5CD80E49CE9F701918380838FEFA0
:1009E0008883DF91CF911F910F91FF90EF90DF905F
:1009F000CF90BF90AF9008956EE270E087E495E0ED
:100A0000BCDE6FE270E084E495E0B7DE62E370E0A4
:100A100081E495E0B2DE63E370E08EE395E0ADCE75
:100A200085E42BDEBC01990F880B990B68D627E172
:100A300037EB41E559E3EFD627EE3DE147EA5BE3CB
:100A40005ED59B01AC0160E070E080E89FE3BCD51F
:100A500020E030E040E250E452D51ED6CB010895AC
:100A60008AE30BDEBC01990F880B990B48D62FE661
:100A700032E143E05AE3CFD624E237E94FEF5BE3BC
:100A80003ED59B01AC0160E070E080E89FE39CD51F
:100A900003D6CB0108958DE3F0DDBC01990F880BDF
:100AA000990B2DD62FE632E143E05AE3B4D628E77E
:100AB0003AE745E25CE323D59B01AC0160E070E0DE
:100AC00080E89FE381D5E8D5CB010895FB01019033
:100AD0000020E9F73197AF01461B570BDC01ED9180
:100AE000FC910280F381E02D19948F929F92AF9236
:100AF000BF92EF92FF920F931F93CF93DF93CDB7E7
:100B0000DEB7A1970FB6F894DEBF0FBECDBF7C0154
:100B1000FA01CB0119A2223008F42AE08E010F5D00
:100B20001F4F822E912CB12CA12CBF01A501940145
:100B3000C4D4F901CA016A3004F5605DD8016E932E
:100B40008D01232B242B252B81F790E080E010973B
:100B500019F0BD01C701BADFA1960FB6F894DEBF48
:100B60000FBECDBFDF91CF911F910F91FF90EF90FE
:100B7000BF90AF909F908F900895695CDFCFCF9228
:100B8000DF92EF92FF920F931F93CF93DF93EC01CD
:100B90006A017B01E881F9810190F081E02D6DE22D
:100BA00019958C0144275527BA014C195D096E0926
:100BB0007F092AE0CE0199DF800F911FDF91CF914D
:100BC0001F910F91FF90EF90DF90CF900895CF93FA
:100BD000DF93AC01990F660B770B77FF0EC08EE9A0
:100BE00094E0CDDFEC0162E172E08EE994E06EDF2B
:100BF0008C0F9D1FDF91CF9108952AE08EE994E03C
:100C000074DFF0CFAB01770F660B770B77FDB7CFB3
:100C10002AE06BCF0F931F93CF93DF93EC0156DF46
:100C20008C0162E172E0CE0151DF800F911FDF91F4
:100C3000CF911F910F9108951F920F920FB60F92AF
:100C400011240BB60F922F933F934F935F936F93A3
:100C50007F938F939F93AF93BF93EF93FF938EE90F
:100C600094E089DBFF91EF91BF91AF919F918F91BC
:100C70007F916F915F914F913F912F910F900BBE9C
:100C80000F900FBE0F901F9018951F920F920FB6E6
:100C90000F9211240BB60F922F938F939F93EF9384
:100CA000FF93E091AE04F091AF048081E091B40431
:100CB000F091B50482FD1DC090818091B7048F5FD3
:100CC0008F732091B804821741F0E091B704F0E0EF
:100CD000E256FB4F958F8093B704FF91EF919F9160
:100CE0008F912F910F900BBE0F900FBE0F901F9002
:100CF00018958081F2CF1F920F920FB60F92112498
:100D00002F933F938F939F93AF93BF938091F8035B
:100D10009091F903A091FA03B091FB033091F7038E
:100D200023E0230F2D3758F50196A11DB11D209307
:100D3000F7038093F8039093F903A093FA03B09319
:100D4000FB038091FC039091FD03A091FE03B09101
:100D5000FF030196A11DB11D8093FC039093FD0339
:100D6000A093FE03B093FF03BF91AF919F918F912A
:100D70003F912F910F900FBE0F901F90189526E86E
:100D8000230F0296A11DB11DD2CF1F920F920FB655
:100D90000F9211240BB60F922F933F934F935F93B3
:100DA0006F937F938F939F93AF93BF93EF93FF9333
:100DB00048E251E064E271E090E080E065DDFF919F
:100DC000EF91BF91AF919F918F917F916F915F91C3
:100DD0004F913F912F910F900BBE0F900FBE0F9030
:100DE0001F9018951F920F920FB60F9211240BB6F9
:100DF0000F922F933F934F935F936F937F938F93B4
:100E00009F93AF93BF93EF93FF9348EA50E064EA58
:100E100070E083E090E038DDFF91EF91BF91AF91FA
:100E20009F918F917F916F915F914F913F912F9102
:100E30000F900BBE0F900FBE0F901F9018951F9232
:100E40000F920FB60F9211240BB60F922F933F9370
:100E50004F935F936F937F938F939F93AF93BF93C2
:100E6000EF93FF9348E950E064E970E082E090E09E
:100E70000BDDFF91EF91BF91AF919F918F917F918A
:100E80006F915F914F913F912F910F900BBE0F90FB
:100E90000FBE0F901F9018951F920F920FB60F92D2
:100EA00011240BB60F922F933F934F935F936F9341
:100EB0007F938F939F93AF93BF93EF93FF9348E8F4
:100EC00050E064E870E081E090E0DEDCFF91EF91BB
:100ED000BF91AF919F918F917F916F915F914F9152
:100EE0003F912F910F900BBE0F900FBE0F901F9050
:100EF0001895FC019091F603903398F481E0890FE6
:100F00008093F6039083892F90E0FC01EE0FFF1F82
:100F1000E80FF91FE25FFB4F88EB9BE09283818330
:100F200008958FEF80830895EEE9F4E01382128232
:100F300088EE93E0A0E0B0E084839583A683B78336
:100F400084E092E09183808385EC90E095878487AC
:100F500084EC90E09787868780EC90E0918B808B83
:100F600081EC90E0938B828B82EC90E0958B848B6C
:100F700086EC90E0978B868B118E128E138E148EDA
:100F800087E495E0B6DF84E495E0B3DF81E495E0A3
:100F9000B0DF8EE395E0ADDF8BE395E0AACF7894E8
:100FA00084B5826084BD84B5816084BD85B582606E
:100FB00085BD85B5816085BD80916E00816080931F
:100FC0006E00109281008091810082608093810088
:100FD0008091810081608093810080918000816098
:100FE000809380008091B10084608093B1008091F3
:100FF000B00081608093B000809191008260809306
:101000009100809191008160809391008091900087
:101010008160809390008091A10082608093A10004
:101020008091A10081608093A1008091A0008160E7
:101030008093A000809121018260809321018091A2
:101040002101816080932101809120018160809342
:10105000200180917A00846080937A0080917A00E8
:10106000826080937A0080917A00816080937A0018
:1010700080917A00806880937A001092C1006BE0C2
:1010800070E08BE395E079DB61E08DE0C5DA8EE915
:1010900094E09093070480930604E091AE04F091ED
:1010A000AF0482E08083E091AA04F091AB04108247
:1010B000E091AC04F091AD0480E180831092B6041D
:1010C000E091B204F091B30486E08083E091B00433
:1010D000F091B104808180618083E091B004F0914F
:1010E000B104808188608083E091B004F091B10404
:1010F000808180688083E091B004F091B1048081A8
:101100008F7D808365E172E08EE994E083DDF5DA1E
:1011100065E372E080910604909107047BDD6FE344
:1011200072E0809106049091070474DDE6DAEFE046
:10113000CE2ED12CF5E07F2EEE24E394F12CC0913D
:101140000C04D0910D04C130D10519F130F0C2303A
:10115000D10509F47BC09CD9F2CF6BE772E0809196
:1011600006049091070456DDC8DA6CE872E08091BD
:101170000604909107044EDD3FDC6FE972E0809138
:1011800006049091070446DDF0920D04E0920C04F1
:10119000E2CF46DC5C0160EB72E08EE994E096DC25
:1011A000C50115DD20E1A216B1040CF442C073DCC8
:1011B000EC0156DCC80FD91FD7FD2196D595C795F0
:1011C0002C97279760F167DCEC014ADCC80FD91F28
:1011D000D7FD2196D595C79546018C1A9D0A789C16
:1011E0008001799C100D1124053F81E0180714F04F
:1011F00004EF11E017FF02C010E000E061EC72E0C4
:101200008EE994E063DCC401E2DC69EC72E08EE913
:1012100094E05CDCC801DBDCC801D9DCD1CF68ED2F
:1012200072E08EE994E052DCC501D1DCF9DB5C01AF
:10123000B9CF87E495E018D884E495E015D881E427
:1012400095E012D88EE395E00FD89ECFE091470548
:101250008E2F90E0FC01EE0FFF1FE80FF91FE25FF9
:10126000FB4F80818F7B8083E09144058E2F90E03F
:10127000FC01EE0FFF1FE80FF91FE25FFB4F8081BB
:101280008F7B8083E09141058E2F90E0FC01EE0F73
:10129000FF1FE80FF91FE25FFB4F80818F7B808388
:1012A000E0913E058E2F90E0FC01EE0FFF1FE80F4E
:1012B000F91FE25FFB4F80818F7B808360E08EE2CD
:1012C000ABD960E08FE2A8D960E082E3A5D960E005
:1012D00083E3A2D946DA0091000410910104209121
:1012E000020430910304601B710B820B930B613D70
:1012F00077408105910560F134DA609300047093C2
:1013000001048093020490930304EBECF1E08491D8
:10131000E5E8F1E01491EFE3F1E0049170E060E0C2
:10132000002391F08111E4D8E02FF0E0EE0FFF1FD1
:10133000E85EFE4FA591B491EC911E2391E080E010
:1013400009F490E0692F782F81E068278DE037D984
:1013500008DA009108041091090420910A043091E0
:101360000B04601B710B820B930B653F7140810571
:10137000910508F490C0F5D96093080470930904AE
:1013800080930A0490930B0469EE72E08091060446
:10139000909107043FDC86E370D99C012D5C3240BC
:1013A00044E6429FC001439F900D11246FE870E016
:1013B000A1D28B01CB0101978F39910508F03DC077
:1013C000D0D96AEF72E080910604909107047EDB29
:1013D000B801809106049091070414DC66E073E084
:1013E000809106049091070471DB64E172E08091C2
:1013F0000604909107040EDC109204046AEA73E07C
:10140000809106049091070461DB0091060410911D
:1014100007044091050450E070E060E02AE0C80154
:1014200064DB62E172E0C80151DB809105048F5FEB
:101430008B30B0F5809305042EC080910604909106
:10144000070468E073E017FD1BC06EE373E0013A28
:101450001105B4F466E573E0DDDB63E973E08091C8
:1014600006049091070432DBB80180910604909144
:101470000704C8DB66E073E08091060490910704DE
:10148000C9DB809104048F5F80930404863008F4E4
:10149000B5CF10920504D0930D04C0930C045BCE1D
:1014A00010920504A9DA63ED73E08091060490912F
:1014B0000704B0DBC1E0D0E0EECFA1E21A2EAA1BF8
:1014C000BB1BFD010DC0AA1FBB1FEE1FFF1FA217F4
:1014D000B307E407F50720F0A21BB30BE40BF50BF1
:1014E000661F771F881F991F1A9469F7609570957A
:1014F000809590959B01AC01BD01CF010895505896
:10150000BB27AA270ED04DC13ED130F043D120F0E9
:1015100031F49F3F11F41EF433C10EF4E095E7FB64
:1015200029C1E92F4FD180F3BA17620773078407E7
:10153000950718F071F49EF567C10EF4E0950B2E37
:10154000BA2FA02D0B01B90190010C01CA01A00115
:101550001124FF27591B99F0593F50F4503E68F170
:101560001A16F040A22F232F342F4427585FF3CFB1
:10157000469537952795A795F0405395C9F77EF482
:101580001F16BA0B620B730B840BBAF09150A1F0CB
:10159000FF0FBB1F661F771F881FC2F70EC0BA0F51
:1015A000621F731F841F48F4879577956795B795D9
:1015B000F7959E3F08F0B3CF9395880F08F09927D1
:1015C000EE0F9795879508950CD0EBC0E3D040F0CF
:1015D000DAD030F021F45F3F19F0CCC0511115C1C1
:1015E000CFC0F0D098F39923C9F35523B1F3951BDD
:1015F000550BBB27AA2762177307840738F09F5F34
:101600005F4F220F331F441FAA1FA9F333D00E2EA2
:101610003AF0E0E830D091505040E695001CCAF70F
:1016200029D0FE2F27D0660F771F881FBB1F2617D4
:1016300037074807AB07B0E809F0BB0B802DBF01A7
:10164000FF2793585F4F2AF09E3F510568F092C0E4
:10165000DCC05F3FECF3983EDCF3869577956795A9
:10166000B795F7959F5FC9F7880F911D9695879558
:1016700097F90895E1E0660F771F881FBB1F621777
:1016800073078407BA0720F0621B730B840BBA0B35
:10169000EE1F88F7E095089504D06894B111B5C0A5
:1016A000089598D088F09F5790F0B92F9927B75197
:1016B000A0F0D1F0660F771F881F991F1AF0BA9516
:1016C000C9F712C0B13081F09FD0B1E008959CC03D
:1016D000672F782F8827B85F39F0B93FCCF386950C
:1016E00077956795B395D9F73EF490958095709569
:1016F00061957F4F8F4F9F4F0895E89409C097FBE6
:101700003EF490958095709561957F4F8F4F9F4FD8
:101710009923A9F0F92F96E9BB279395F69587951C
:1017200077956795B795F111F8CFFAF4BB0F11F4DF
:1017300060FF1BC06F5F7F4F8F4F9F4F16C0882386
:1017400011F096E911C0772321F09EE8872F762FBC
:1017500005C0662371F096E8862F70E060E02AF0FD
:101760009A95660F771F881FDAF7880F96958795E9
:1017700097F9089597F99F6780E870E060E0089511
:101780009FEF80EC089500240A9416161706180699
:101790000906089500240A94121613061406050675
:1017A0000895092E0394000C11F4882352F0BB0F06
:1017B00040F4BF2B11F460FF04C06F5F7F4F8F4F69
:1017C0009F4F089557FD9058440F551F59F05F3FA4
:1017D00071F04795880F97FB991F61F09F3F79F053
:1017E00087950895121613061406551FF2CF4695D5
:1017F000F1DF08C0161617061806991FF1CF869557
:101800007105610508940895E894BB27662777273A
:10181000CB0197F908950BD0C4CFB5DF28F0BADF1C
:1018200018F0952309F0A6CFABCF1124EECFCADF75
:10183000A0F3959FD1F3950F50E0551F629FF001E3
:10184000729FBB27F00DB11D639FAA27F00DB11D3C
:10185000AA1F649F6627B00DA11D661F829F2227C5
:10186000B00DA11D621F739FB00DA11D621F839F4C
:10187000A00D611D221F749F3327A00D611D231F22
:10188000849F600D211D822F762F6A2F11249F5770
:1018900050408AF0E1F088234AF0EE0FFF1FBB1F93
:1018A000661F771F881F91505040A9F79E3F510532
:1018B00070F060CFAACF5F3FECF3983EDCF38695E3
:1018C00077956795B795F795E7959F5FC1F7FE2BDD
:1018D000880F911D9695879597F90895991B79E042
:1018E00004C0991F961708F0961B881F7A95C9F7B0
:1018F0008095089597FB072E16F4009406D077FD87
:1019000008D013D007FC05D03EF4909581959F4FE9
:101910000895709561957F4F0895EE0FFF1F881F02
:101920008BBF0790F691E02D1994AA1BBB1B51E1C8
:1019300007C0AA1FBB1FA617B70710F0A61BB70B3F
:10194000881F991F5A95A9F780959095BC01CD01E4
:061950000895F894FFCF9A
:1019560000000000DD01480175012902A60184018D
:1019660098010D0A004D454348454E473730365FCE
:10197600426173655F436F64655F32352F30312F87
:10198600323031380053657475702E2E2E2E00417C
:101996006E647265772069732061207061696E20BC
:1019A600616E642077696C6C20626520646F637574
:1019B6006D656E74696E67207468652076617269FC
:1019C60061626C65206E616D657300494E495449CC
:1019D600414C4953494E472E2E2E2E00456E6162CC
:1019E6006C696E67204D6F746F72732E2E2E0052C7
:1019F600554E4E494E472053544154452E2E2E00E7
:101A060066726F6E742044697374616E63653A2002
:101A1600004572726F723A200046726F6E745F6F85
:101A260066667365743A200046726F6E7420446968
:101A36007374616E63653A200053544F50504544A9
:101A46002D2D2D2D2D2D2D2D2D004C69706F206CDB
:101A56006576656C3A0025004C69706F20697320C5
:101A6600446973636F6E6E6563746564206F72207C
:101A7600506F7765722053776974636820697320A5
:101A86007475726E6564204F464621212100214CF3
:101A960069706F206973204F76657263686172673B
:101AA6006564212121004C69706F20766F6C74612A
:101AB600676520746F6F204C4F572C20616E79201C
:101AC6006C6F77657220616E6420746865206C693E
:101AD600706F20776974682062652064616D616744
:101AE600656400506C656173652052652D6368619D
:101AF600726765204C69706F3A004C69706F204FB1
:101B06004B2077616974696E67206F6620766F6C0B
:101B16007461676520436F756E746572203130207D
:101B26003C20004C69706F204F4B207265747572B3
:101B36006E696E6720746F2052554E20535441547F
:021B4600450058
:00000001FF
